:020000040800F2
:100000000004002023020008310200083302000827
:10001000350200083702000839020008000000001D
:100020000000000000000000000000003B0200088B
:100030003D020008000000003F02000841020008E5
:100040004302000843020008430200082D5C000838
:100050004302000843020008155D0008430200083F
:1000600099090008BF090008EB09000843020008CD
:10007000430200084302000843020008430200084C
:100080004302000843020008430200088D7F000875
:100090008F7F00084302000843020008870A000817
:1000A000430200084302000843020008430200081C
:1000B000430200080D0B0008430200084302000839
:1000C00043020008430200084302000843020008FC
:1000D00043020008B7060008430200084302000874
:1000E0004302000843020008977F0008430200080B
:1000F00043020008430200084302000843020008CC
:100100004302000843020008C50C0008430200082F
:100110004302000843020008350E000843020008AD
:10012000430200084302000843020008430200089B
:1001300000F002F800F05FF80AA090E8000C82449A
:100140008344AAF10107DA4501D100F054F8AFF277
:10015000090EBAE80F0013F0010F18BFFB1A43F0A5
:100160000103184798960000B89600000A444FF023
:10017000000C10F8013B13F0070408BF10F8014B06
:100180001D1108BF10F8015B641E05D010F8016B4B
:10019000641E01F8016BF9D113F0080F1EBF10F8AF
:1001A000014BAD1C0C1B09D16D1E58BF01F801CBD2
:1001B000FAD505E014F8016B01F8016B6D1EF9D555
:1001C0009142D6D37047000000230024002500266A
:1001D000103A28BF78C1FBD8520728BF30C148BFAA
:1001E0000B607047782908F04581002070471FB5E3
:1001F0001FBD10B510BD08F0F9F91146FFF7F7FF64
:1002000000F057F808F017FA03B4FFF7F2FF03BC49
:1002100000F042FA30BF72B662B680F308887047C9
:1002200070470B4880470B4981F308880A4800470C
:10023000FEE7FEE7FEE7FEE7FEE7FEE7FEE7FEE796
:10024000FEE7FEE705480649044A064B70470000F2
:1002500021020008980B00203101000898030020BB
:10026000980B0020980300202D49896941F0040172
:100270002B4A916138B12B49096889B221F00201FA
:10028000284A116014E02749096889B241F0020147
:10029000244A11602449096821F47F21224A11600F
:1002A0001146096841F44C31116000211F4A116068
:1002B000704700BF00BF00BF00BF00BF092000F0B3
:1002C0008FF9482000F034F84FF41651482000F020
:1002D0002DFA01F0F4FB00F0A1FA00F0D7FA06F0D5
:1002E000D5F80020FFF7C0FF4FF4967000F058F8E3
:1002F0000120FFF7B9FF07F052FD07F035FD06F0CA
:1003000021FF4FF4967000F04BF841F61F4142F286
:10031000107000F072FD01E005F0F0FEFCE7000057
:1003200000100240405C004004080140B00121423E
:100330004FF0E021096921F004014FF0E022116142
:10034000C21700EB5272C2F3C702234B1A70194650
:10035000097801EB4102C2EBC1114FF6FF7202EACC
:10036000C1011E4A1180704701461B4A12784A4358
:100370004FF0E0235A6100229A6101221A6100BF06
:100380004FF0E022106900F001021AB100F480324F
:10039000002AF5D000224FF0E0231A619A617047DD
:1003A00001460E4A12884A434FF0E0235A61002268
:1003B0009A6101221A6100BF4FF0E022106900F03B
:1003C00001021AB100F48032002AF5D000224FF069
:1003D000E0231A619A6170470000002002000020AB
:1003E000A14A0A400243A14B1A6070470146072305
:1003F00023EA010212029D4B1B1D18684FF6FF03F2
:1004000018409B4B18431043984B1B1D18607047B6
:100410002DE9F0410746884614461D462846FFF759
:10042000E5FFC5F1040007FA00F60F20284100EAB5
:100430000800064306F00F06202C09DA8D480068F4
:100440000121A14008434FF0E021C1F800010BE079
:100450008848001D0068A4F1200101228A40104351
:100460004FF0E021C1F804018348005D40EA061026
:10047000C1B281480155BDE8F08170B504460B4614
:10048000CE1701EB9676C6F38700CE1701EB967672
:10049000B610A1EB8606B606350E784B9B6943F085
:1004A0000103764EB3614FEAB63353F820300F267E
:1004B000AE40B343724E46F82030334653F82030F6
:1004C00004FA05F61E436E4B43F820606D4B1B6823
:1004D00001268E4033436B4E336002F0010343B17B
:1004E000684B0C331B6801268E403343654E0C3637
:1004F000336002F0020343B1624B08331E680123EC
:100500008B401E435F4B08331E6070BD00B500205A
:100510005A490861C8601420486100208861C86198
:100520000846006840F001000860084640685649E7
:1005300008405249486008460068544908404F49FD
:1005400008600846006820F480200860084640687B
:1005500020F4FE0048600020886000214FF0006019
:10056000FFF73EFF00BD10B540480830006840F07E
:1005700004003E49083108604048C06940F080509E
:100580003E49C8614248406840F480704049486034
:100590000846006840F0040008600846006840F023
:1005A00002000860FFF736FE10BD3148001D2F49DC
:1005B000091D0860704701464906304A926942F0B9
:1005C00001022E4B9A612E4A083A526822F0E062EC
:1005D0002B4B083B5A601A4652680A435A607047D0
:1005E00030B504460025FFF791FF2448006840F429
:1005F00080302249086000BF20480068400C002875
:10060000FAD04FF480601D494860A01EC4B208466D
:10061000406840EA844048600846406840F48030C2
:1006200048601C48006840F032001A4908601348CE
:10063000006840F080701149086000BF0F480068F2
:10064000400E0028FAD00D48406840F002000B49E7
:10065000486005E009484068C0F3870505F00305D8
:10066000022DF7D130BD000080FFFF1F08ED00E034
:100670000000FA0500E100E000E400E000100240A4
:1006800008000140000401400000FFF8FFFFF6FEF3
:100690000070004000200240014600BF704700BFCC
:1006A000584A128802F04002002AF9D0C2B2554BD3
:1006B0001B1D1A8070475349098801F0200111B3AE
:1006C0005049091D0988C8B24F49098801F4004101
:1006D000C9B94D49098801F4804161B10A2803D0A4
:1006E0000021494A118020E04749098841F400412E
:1006F000454A118019E00D2806D14349098841F483
:100700008041414A118010E03F490988C1F30D0141
:100710003E4A50543C490988491C3B4A11801146C5
:100720000988C72901DD0021118070472DE9F05F9C
:1007300005460E46300108F0C9F88146344905FBEC
:1007400001F008F0C3F88246494607F0DDFF07468E
:10075000384608F09BF884B2204608F0B7F8834684
:10076000394608F093F982464FF0834108F0C2F809
:10077000814608F08BF880464FF6FF7000EA0414BB
:1007800004EB080084B22348806940F0040021494A
:1007900088610846806940F4804088611E4800688E
:1007A00020F47F601C4908600846006840F40B6034
:1007B00008601848C06840F480401649C860084680
:1007C000C06820F48040C8600E4808300480001DD6
:1007D000008842F20C0108430A490C31088008469F
:1007E000008840F4807008800846008840F02000AF
:1007F00008800223252203210846FFF709FEBDE8F1
:10080000F09F000000380140080000202C0200206A
:1008100040420F000010024004080140184880695F
:1008200040F00800164988610846806940F04000A1
:1008300088611448006820F4700012490860084676
:10084000006840F4401008600E480C30006840F02A
:1008500020000C490C3108600B48006820F470003F
:10086000094908600846006840F4401008600648DE
:100870000C30006840F0200003490C3108607047DC
:1008800000100240000C0140001801403A48806905
:1008900040F00400384988610846806940F0400013
:1008A00088613648006820F00F0034490860084627
:1008B000006840F00800086031480068314908408D
:1008C0002F490860084600682F4908432C490860F2
:1008D0002B480C30006840F01C0029490C3108609E
:1008E000704710B5044614B1012028490870274804
:1008F000007858B32648006858B12548001F0068A2
:1009000038B123480838006818B122480068012827
:100910001CD10A20FFF744FD00201C4908701C4828
:10092000006808B9012010BD1948001F006808B907
:100930000220F8E716480838006808B90320F2E7F3
:1009400014480068012815D10420ECE7104800681D
:1009500001280FD10E48001F006801280AD10C4859
:1009600008380068012805D10A48006810B901203C
:10097000064908700020D6E7001002400008014038
:1009800000180140FF00F0FF008808000A00002066
:10099000100123420001214210B50A20FFF700FD9B
:1009A0005348006838B95348006808B9012000E08E
:1009B00000205049086004204F49086010BD10B560
:1009C0000A20FFF7EDFC4A48001D006848B9484876
:1009D0008C30006808B9012000E0002044498C31C7
:1009E000086008204449086010BD10B50A20FFF7D0
:1009F000D7FC3F480830006888B93E48006808B90D
:100A0000012000E000203B4908603C48D0F89401F8
:100A100008B9012000E0002035498C310860102021
:100A20003549086010BD10B5FFF730FF02220021E4
:100A30000846FFF722FD012202210420FFF71DFDD9
:100A4000012203210420FFF718FD0122042108469A
:100A5000FFF713FD0223062203211846FFF7D8FCF7
:100A60000223082219461846FFF7D2FC0223092266
:100A700001211846FFF7CCFC02230A220021184668
:100A8000FFF7C6FC10BD1C48006800F48070D0B1B0
:100A90001B480078022816DA1948007850B900205F
:100AA0001849086001201849C1F89801114908390E
:100AB000086003E000200F490839086010480078FA
:100AC000401C0F4908700C48006840F4F8700A494F
:100AD0000860704710B5022208210020FFF7CDFC06
:100AE0000223172200210846FFF792FC10BD0000E8
:100AF0000801234294812142140401400000234252
:100B0000280000209881224200802242FE4800886E
:100B100000F0010038B1FD48006808B9012000E08C
:100B20000020FA490860F848008820F00100F649E2
:100B30000880704770B505460C46F548C06940F01E
:100B40000200F349C861F0481C300580001F048092
:100B5000ED48001F008840F00100EB49091F0880A4
:100B6000E9481038008840F00100E7491039088052
:100B700002231D2203210120FFF74AFC70BDE44A35
:100B8000D26942F00202E24BDA611A46926942F0FF
:100B900008029A61DF4A126822F47002DD4B1A6083
:100BA0001A46126842F430021A60D94A926942F039
:100BB0000102D74B9A61D84A526822F44062D64B60
:100BC0005A601A46526842F400625A60CE4A1C3299
:100BD0001080121F1180CC4A0832128842F4E04281
:100BE000C94B08331A801A46128842F400621A80F0
:100BF000C54A1032128842F01002C34B10331A80DB
:100C0000DA13C14B103B1A801A46128842F00102D7
:100C10001A80704770B504460D46BD48C06940F063
:100C20000800BB49C8610846806940F0040088613B
:100C3000BA48006820F00F00B8490860084600680C
:100C400040F008000860B5480C300068B3490C312A
:100C50000860B3480480001F0580B148143800883C
:100C600040F00100AE491439088008460088088029
:100C7000084600880880AA480C380088A8490C3922
:100C800008800846008840F001000880A448203809
:100C9000008840F00200A2492039088008460088F8
:100CA00040F0010008809E482C38008840F0010088
:100CB0009B492C3908800223322200211846FFF775
:100CC000A7FB70BD96491C3908889649097801F040
:100CD000800100294ED100F00101D1B1914909787C
:100CE00001F04001A9B18F49097801F03F013F2986
:100CF0000AD18C49097841F080018A4A11704FF677
:100D0000FF71894A118004E086490978491C854AA7
:100D1000117000F0020169B38249097801F04001C5
:100D200099B18049097841F080017E4A11707C496F
:100D3000083109887C4A118079490C39098821F0E9
:100D40000201774A0C3A118014E00021754A1170B3
:100D5000754A11807349097841F04001714A117058
:100D600000216F4A083A1180111F098841F00201E1
:100D7000121F118000216A4A1C3A11807047644A90
:100D8000D26942F00402624BDA611A46926942F07B
:100D900008029A615F4A126822F070625D4B1A6025
:100DA0001A46126842F030621A60604A1080121FC0
:100DB00011805E4A143A128842F070025B4B143B79
:100DC0001A801A46128842F008021A80574A0C3AD2
:100DD000128842F00202554B0C3B1A801A461288C8
:100DE00042F001021A808022504B2C3B1A801A4696
:100DF000128842F001021A80704770B505460C4611
:100E00004348C06940F010004149C86148488585A1
:100E10000485808940F001004549888108460088A2
:100E200040F0010008800223362203210120FFF751
:100E3000EFFA70BD7CB53E48008A00F00100002842
:100E400060D00A24642566194FF6FF7000F005FE95
:100E50004FF47840374908803748007837490870A0
:100E600000203549087036A010210B462A46CDE9EE
:100E700000103221204604F097FC1020022300903D
:100E80002E4802783221304604F0D7FB2F480078F4
:100E90002F49087000202D4908702EA010210B4604
:100EA0002A46CDE900104621204604F07DFC1020A2
:100EB00002230090264802784621304604F0BDFB0C
:100EC00027A010210B462A46CDE900105A212046C2
:100ED00004F06AFC1020009023480A236E21026867
:100EE000184604F0AAFB102000901F480A23822114
:100EF0004268184604F0A1FB102000901A48027ABC
:100F00000A2333E05CE00000100400409401234217
:100F100000100240000C01400000014000080140A8
:100F20002C0C00400C0000200E0000202C0800407B
:100F300000100040140000201100002010000020CC
:100F40005553425F5350533A0000000013000020F5
:100F5000120000204F56305F4650533A0000000008
:100F6000627566303A0000000C0300209621184696
:100F700004F063FB16A010210B462A46CDE90010B1
:100F8000AA21204604F010FC1020009012480A23E9
:100F9000BE210268184604F050FB102000900E4855
:100FA0000A23D2214268184604F047FB1020009023
:100FB0000948027A0A23E621184604F03EFB00BFE6
:100FC0000648008A20F00100044908827CBD000028
:100FD000627566313A0000001C00002000100040DD
:100FE00001B5BDF800000090BDF80000F749088089
:100FF00008BD01B5BDF800000090BDF80000F34940
:10100000891C088008BD08B5F048801C0088009045
:10101000BDF8000008BD03B5BDF80000EB4908802D
:10102000BDF80400891C08800CBD01B5BDF80000A6
:10103000FFF7D6FF0520FFF797F9FFF7E4FF08BD9C
:10104000E3480089E14908807047E049891C08802D
:10105000704730B5014601F01F04C1F34513CA0AB9
:10106000E50205EB43151544A8B230BD00BF0100F1
:10107000A0F10102D0B2FAD1704730B504460D4656
:10108000D348808849F24131884205D0D0488088D1
:1010900045F21031884214D1CD494889FFF7A0FFAD
:1010A0002012FFF7A6FFE0B2FFF7A3FFC849888927
:1010B000FFF796FF2812FFF79CFFE8B2FFF799FFB2
:1010C0005DE0C348808846F6040188421DD1C048CF
:1010D0008079012804D1BE480088401E001B84B2DC
:1010E000BB494889FFF77CFF2012FFF782FFE0B27F
:1010F000FFF77FFFB6498889FFF772FF2812FFF7D5
:1011000078FFE8B2FFF775FF39E0B148808845F213
:101110001051884220D1AE494889FFF761FF201263
:10112000FFF767FFAA494989491C88B2FFF758FFB2
:10113000E0B2FFF75EFFA6498889FFF751FF28124A
:10114000FFF757FFA2498989491C88B2FFF748FF7A
:10115000E8B2FFF74EFF12E09D488079012804D1E4
:101160009B480088401E001B84B29949488921464B
:10117000FFF751FF964988892946FFF74CFF30BD9C
:101180003EB504460D460020029001900090904824
:101190000088A04203DD8E484088A84201DC002080
:1011A0003EBD29462046FFF768FF8948808849F2FE
:1011B000413188420BD08648808846F60401884237
:1011C00005D08348808845F21031884203D12E2013
:1011D000FFF706FF0DE07E48808845F210518842F7
:1011E00004D14FF43850FFF7FBFE02E02220FFF756
:1011F000F7FE7748808849F22031884202D10220E8
:10120000FFF734FFFFF7FFFE0220FFF72FFFFFF786
:10121000FAFE02906E48808849F2413188420BD034
:101220006B48808845F21031884205D06848808834
:1012300045F21051884210D10220FFF717FFFFF747
:10124000E2FE0090BDF80800C0B20190BDF80400B5
:101250004FF6FF7101EA002001905D48808849F255
:101260002531884216D05A48808844F23551884248
:1012700010D057488088091F88420BD05448808876
:101280004BF20551884205D0514880884CF20551F7
:10129000884202D1BDF8080082E74D48808849F2B3
:1012A000413188420BD04A48808845F2103188424B
:1012B00005D04748808845F2105188420DD1BDF8CD
:1012C0000800C012C002BDF80410891240EA4110A3
:1012D000BDF8001040EAE12062E7BDF80800FFF722
:1012E000B8FE5DE700B53A48808849F2413188424E
:1012F0000BD03748808846F60401884205D0344830
:10130000808845F21031884203D12920FFF768FE1A
:101310000FE02F48808845F21051884204D14FF4E5
:101320002450FFF75DFE04E040F273110720FFF741
:1013300072FE00BD00B52648808849F241318842DE
:101340000BD02348808846F60401884205D0204807
:10135000808845F21031884203D12820FFF740FEF3
:101360000EE01B48808845F21051884204D14FF4AA
:101370002050FFF735FE03E000210720FFF74BFE6A
:1013800000BDF0B5054600240027114880790128EA
:1013900023D10F48808846F6040188421DD0082DCD
:1013A0001AD2DFE805F00406080A0C0E101706250D
:1013B00012E0072510E004250EE005250CE00125CC
:1013C0000AE0002508E0032506E00000FE07006CA7
:1013D000F4020020022500BF00BFFE48808849F2C9
:1013E0004131884211D0FB48808846F6040188428A
:1013F0000BD0F848808845F21031884205D0F54876
:10140000808845F2105188427ED1082D1CD2DFE839
:1014100005F00406090C0F12151800BF14E044F083
:10142000800411E044F040040EE044F0C0040BE0FE
:1014300044F0200408E044F0600405E044F0A00417
:1014400002E044F0E00400BF00BFE248808845F2BB
:101450001051884202D14FF4585700E03627DD483A
:10146000808845F21031884207D0DA48808845F2FA
:101470001051884201D044F00804D648808846F6CE
:101480000401884201D144F0020421463846FFF7A6
:10149000C2FD04F0200068B1CE480088CD494988DB
:1014A000884214DACB4806884088CA490880084632
:1014B00046800CE0C7480088C6494988884206DD56
:1014C000C44806884088C349088008464680C14809
:1014D000808845F21051884254D1BE494889FFF7AF
:1014E0007FFD0020FFF785FDBA494989491C88B274
:1014F000FFF776FD0020FFF77CFDB6494989891C7E
:1015000088B2FFF76DFD00E06BE0B2490988491E23
:10151000C1F30F20FFF76DFDAE494989C91C88B2A0
:10152000FFF75EFDAB490978491EC8B2FFF761FDC0
:10153000A8498889FFF754FD0020FFF75AFDA54907
:101540008989491C88B2FFF74BFD0020FFF751FD48
:10155000A0498989891C88B2FFF742FD9D494988C5
:10156000491EC1F30F20FFF744FD9A498989C91C20
:1015700088B2FFF735FD97498978491EC8B2FFF751
:1015800038FD55E093494889FFF72AFD0020FFF711
:1015900030FD0020FFF72DFD8E490988491EC1F35B
:1015A0000F20FFF726FD8B490978491EC8B2FFF7C7
:1015B00020FD88498889FFF713FD0020FFF719FDFA
:1015C0000020FFF716FD83494988491EC1F30F200B
:1015D000FFF70FFD7F498978491EC8B2FFF709FD63
:1015E00026E0082D1CD2DFE805F004070A0D0F12D3
:1015F000151844F0300413E044F0100410E044F0F7
:1016000020040DE000BF0BE044F0380408E044F093
:10161000280405E044F0180402E044F0080400BF88
:1016200000BF032744F4805421463846FFF7F3FCFB
:10163000F0BD30B504460D4629462046FFF71DFD96
:10164000FFF7FEFC644800886449088030BD70B52F
:1016500004460D4616465F48808849F2413188426B
:1016600005D05C48808845F21031884214D1594930
:101670004889FFF7B5FC2012FFF7BBFCE0B2FFF78B
:10168000B8FC54498889FFF7ABFC2812FFF7B1FC7E
:10169000E8B2FFF7AEFC5DE04E48808845F210519D
:1016A000884220D14B494889FFF79AFC2012FFF766
:1016B000A0FC48494989491C88B2FFF791FCE0B277
:1016C000FFF797FC43498889FFF78AFC2812FFF748
:1016D00090FC40498989491C88B2FFF781FCE8B237
:1016E000FFF787FC36E03B48808846F604018842D5
:1016F0001DD138488079012804D136480088401E21
:10170000001B84B233494889FFF76AFC2012FFF7B7
:1017100070FCE0B2FFF76DFC2E498889FFF760FC92
:101720002812FFF766FCE8B2FFF763FC12E02948D5
:101730008079012804D127480088401E001B84B20C
:10174000244948892146FFF766FC224988892946B1
:10175000FFF761FC1F4800892049891E0880881C0A
:10176000068070BD10B50446002C58D11949887107
:10177000F02008804FF4A07048800846808849F225
:10178000413188420BD01348808846F604018842D4
:1017900005D01048808845F21031884220D12C2095
:1017A0000C4908812A2048812B208881084680889E
:1017B00046F60401884205D00648808845F210317B
:1017C000884206D14FF4A070024908804FF4F070AF
:1017D00048807FE0F4020020140000200008006C24
:1017E000FE48808845F21051884210D14FF43050A5
:1017F000FA4908814FF4285048814FF42C508881D1
:101800004FF4F07008804FF44870488062E0222066
:10181000F249088120204881212088815AE0012056
:10182000EE4988714FF4A0700880F0204880084687
:10183000808849F24131884205D0E848808845F2E5
:101840001031884207D12C20E44908812A204881A0
:101850002B2088812BE0E148808846F604018842ED
:1018600007D12C20DD4908812B2048812A2088813E
:101870001DE0DA48808845F21051884210D14FF4BB
:101880003050D64908814FF4285048814FF42C50ED
:1018900088814FF4487008804FF4F070488006E06B
:1018A0002220CE4908812120488120208881CB48F0
:1018B000808846F60401884205D0C848808845F2F1
:1018C0001031884206D14FF4F070C44908804FF4BB
:1018D000A07048800020FFF754FD10BD2DE9FF4F98
:1018E00004460D4616461F46A019401E86B2E8194A
:1018F000401E87B2B948808849F2413188420BD0F6
:10190000B648808845F21031884205D0B3488088B7
:1019100046F60401884220D1B0494889FFF760FBB0
:101920002012FFF766FBE0B2FFF763FB3012FFF710
:1019300060FBF0B2FFF75DFBA8498889FFF750FB19
:101940002812FFF756FBE8B2FFF753FB3812FFF7F8
:1019500050FBF8B2FFF74DFB7DE0A048808845F2D0
:101960001051884244D19D494889FFF739FB201224
:10197000FFF73FFB99494989491C88B2FFF730FBC3
:10198000E0B2FFF736FB95494989891C88B2FFF719
:1019900027FB3012FFF72DFB90494989C91C88B2FB
:1019A000FFF71EFBF0B2FFF724FB8C498889FFF795
:1019B00017FB2812FFF71DFB88498989491C88B24B
:1019C000FFF70EFBE8B2FFF714FB84498989891CF5
:1019D00088B2FFF705FB3812FFF70BFB7F498989B7
:1019E000C91C88B2FFF7FCFAF8B2FFF702FB32E03D
:1019F0007A48807901280ED1A846B94677480088F0
:101A0000801B401E1FFA80FA74480088001B401E8D
:101A10001FFA80FB03E0A046B146AA46BB46502011
:101A20000390512002905220019053200090414693
:101A30000398FFF7F0FA49460298FFF7ECFA51468F
:101A40000198FFF7E8FA59460098FFF7E4FA2946AB
:101A50002046FFF712FBBDE8FF8F70B50446002655
:101A60005E480588408845435C48808846F6040106
:101A7000884216D159488079012812D1002057494F
:101A800088712A2048812B20888100210846FFF791
:101A9000F4FA0120514988712B2048812A2088813D
:101AA00003E000210846FFF7E8FAFFF7C9FA00262D
:101AB00002E04B480480761CAE42FAD370BD10B5EC
:101AC0004848406940F4807046494861084680694A
:101AD00040F0080088610846806940F02000886175
:101AE0000846806940F0400088610846806940F4FB
:101AF000807088613C48006820F00F003A49086017
:101B00000846006840F0030008603848006838491B
:101B1000084036490860084600683649084333499A
:101B20000860081F006800F0FF20091F08600846D1
:101B3000006840F0BB1008602F48006800202E4964
:101B400008600846006840F0BB300860081F006865
:101B500020F07040091F08600846006840F03040DF
:101B600008602648406820F47020244948600846F0
:101B7000406840F4302048600846006820F00F00BC
:101B800008600846006840F00B00086000204FF035
:101B900020418861C8611A4908604FF0204080697F
:101BA00040F480504FF0204188610846806940F43D
:101BB000804088610846806940F0100088610846CE
:101BC000C069C8610846C06940F00100C8610846A4
:101BD000C06940F47060C861094813E0F402002055
:101BE0000008006C00100240000C01400414014089
:101BF00000F0FF00BB0B00BB0418014000200140B7
:101C00001C0100A00068C1F81C01FE480068C1F872
:101C10001C010846D0F81C0140F44070C1F81C01BA
:101C20000846806940F0010088613220FEF7B8FB69
:101C300001210020FFF7EFF93220FEF7B1FB002071
:101C4000FFF7F3F9F049888008468088FF280ADB0F
:101C5000084680884FF6FF71884204D0EA488088A1
:101C6000B0F5134F7ED1D320FFF7BAF9FFF7CBF9C8
:101C7000FFF7C9F9FFF7C7F9E3498880084680886C
:101C80004FF6FF7101EA0020DF498880FFF7BBF9BA
:101C9000DD4989880843DC4988800846808849F204
:101CA000413188426CD0BF20FFF79AF9FFF7ABF9BA
:101CB000FFF7A9F9FFF7A7F9FFF7A5F9D24988803F
:101CC000084680884FF6FF7101EA0020CE498880DF
:101CD000FFF799F9CC4989880843CB4988800846A1
:101CE000808846F6040188424AD0D420FFF778F96C
:101CF000FFF789F9FFF787F9FFF785F9C24988806F
:101D0000084680884FF6FF7101EA0020BE498880AE
:101D1000FFF779F9BC4989880843BB4988800846A0
:101D2000808845F2103188422AD04FF45A40FFF79C
:101D300057F9FFF768F94FF45B40FFF751F9FFF7E8
:101D400062F9B1498880084680884FF6FF7101EA40
:101D50000020AD4988804FF45C40FFF741F9FFF760
:101D600052F900E00CE0A84989880843A649888018
:101D700008468088B0F5004F02D145F210508880A7
:101D8000A1488188A1A006F035FB9F48808849F2D0
:101D9000413188427ED1CF20FFF722F90020FFF7A2
:101DA00028F9C120FFF725F93020FFF722F9ED20AF
:101DB000FFF716F96420FFF71CF90320FFF719F964
:101DC0001220FFF716F98120FFF713F9E820FFF73B
:101DD00007F98520FFF70DF91020FFF70AF97A209F
:101DE000FFF707F9CB20FFF7FBF83920FFF701F9E0
:101DF0002C20FFF7FEF80020FFF7FBF83420FFF758
:101E0000F8F80220FFF7F5F8F720FFF7E9F82020AF
:101E1000FFF7EFF8EA20FFF7E3F80020FFF7E9F813
:101E20000020FFF7E6F8C020FFF7DAF81B20FFF7E5
:101E3000E0F8C120FFF7D4F80120FFF7DAF8C52059
:101E4000FFF7CEF83020FFF7D4F83020FFF7D1F8B5
:101E5000C720FFF7C5F8B720FFF7CBF83620FFF70C
:101E6000BFF84820FFF7C5F83A20FFF7B9F855202A
:101E7000FFF7BFF8B120FFF7B3F80020FFF7B9F87C
:101E80001A20FFF7B6F8B620FFF7AAF80A20FFF7E6
:101E9000B0F800E097E0A220FFF7ABF8F220FFF7E0
:101EA0009FF80020FFF7A5F82620FFF799F80120FA
:101EB000FFF79FF8E020FFF793F80F20FFF799F85E
:101EC0002A20FFF796F82820FFF793F80820FFF75D
:101ED00090F80E20FFF78DF80820FFF78AF85420BD
:101EE000FFF787F8A920FFF784F84320FFF781F870
:101EF0000A20FFF77EF80F20FFF77BF80020FFF79E
:101F000078F80020FFF775F80020FFF772F800203E
:101F1000FFF76FF8E120FFF763F80020FFF769F89B
:101F20001520FFF766F81720FFF763F80720FFF783
:101F300060F81120FFF75DF80620FFF75AF82B2014
:101F4000FFF757F85620FFF754F83C20FFF751F8F9
:101F50000520FFF74EF81020FFF74BF80F20FFF792
:101F600048F83F20FFF745F83F20FFF742F80F20E1
:101F7000FFF73FF82B20FFF733F80020FFF739F881
:101F80000020FFF736F80120FFF733F83F20FFF776
:101F900030F82A20FFF724F80020FFF72AF8002065
:101FA000FFF727F80020FFF724F8EF20FFF721F8CC
:101FB0001120FFF715F87820FEF7F2F92920FFF736
:101FC0000FF803F02CB91048808846F604018842C7
:101FD0007DD11120FFF704F81420FEF7E1F9D0209D
:101FE000FEF7FEFF0720FFF704F84220FFF701F895
:101FF0001D20FEF7FEFFD120FEF7F2FF0020FEF7C6
:10200000F8FF0BE01C0100A0F4020020204C434428
:102010002049443A25780D0A000000001A20FEF7F6
:10202000E8FF0920FEF7E5FFD220FEF7D9FF0120E7
:10203000FEF7DFFF2220FEF7DCFFC020FEF7D0FF17
:102040001020FEF7D6FF3B20FEF7D3FF0020FEF75F
:10205000D0FF0220FEF7CDFF1120FEF7CAFFC520FA
:10206000FEF7BEFF0320FEF7C4FFC820FEF7B8FF4F
:102070000020FEF7BEFF2520FEF7BBFF2120FEF764
:10208000B8FF0520FEF7B5FF0020FEF7B2FF0A20DB
:10209000FEF7AFFF6520FEF7ACFF2520FEF7A9FF96
:1020A0007720FEF7A6FF5020FEF7A3FF0F20FEF7D4
:1020B000A0FF0020FEF79DFFF820FEF791FF012012
:1020C000FEF797FFFE20FEF78BFF002000E038E0D0
:1020D000FEF78FFF0220FEF78CFF2020FEF780FF27
:1020E0003620FEF77DFF0820FEF783FF3A20FEF73B
:1020F00077FF5520FEF77DFF2B20FEF771FF0020B4
:10210000FEF777FF0020FEF774FF0120FEF771FF56
:102110003F20FEF76EFF2A20FEF762FF0020FEF749
:1021200068FF0020FEF765FF0120FEF762FFDF2059
:10213000FEF75FFF7820FEF733F92920FEF750FF06
:102140003FE7FE48808845F21031884240F07C87A6
:10215000ED20FEF745FF0120FEF74BFFFE20FEF7C6
:1021600048FFEE20FEF73CFFDE20FEF742FF212075
:10217000FEF73FFFF120FEF733FF0120FEF739FFA6
:10218000DF20FEF72DFF1020FEF733FFC420FEF7FF
:1021900027FF8F20FEF72DFFC620FEF721FF00202E
:1021A000FEF727FFE220FEF724FFE220FEF721FFE3
:1021B000E220FEF71EFFBF20FEF712FFAA20FEF767
:1021C00018FFB020FEF70CFF0D20FEF712FF0020D5
:1021D000FEF70FFF0D20FEF70CFF0020FEF709FFB2
:1021E0001120FEF706FF0020FEF703FF1920FEF77F
:1021F00000FF0020FEF7FDFE2120FEF7FAFE002082
:10220000FEF7F7FE2D20FEF7F4FE0020FEF7F1FEAC
:102210003D20FEF7EEFE0020FEF7EBFE5D20FEF710
:10222000E8FE0020FEF7E5FE5D20FEF7E2FE00205E
:10223000FEF7DFFEB120FEF7D3FE8020FEF7D9FEC9
:102240000020FEF7D6FE8B20FEF7D3FE0020FEF71F
:10225000D0FE9620FEF7CDFE0020FEF7CAFEB2208B
:10226000FEF7BEFE0020FEF7C4FE0020FEF7C1FE12
:102270000220FEF7BEFE0020FEF7BBFE0320FEF7A5
:10228000B8FE0020FEF7B5FEB320FEF7A9FE002041
:10229000FEF7AFFE0020FEF7ACFE0020FEF7A9FE21
:1022A0000020FEF7A6FE0020FEF7A3FE0020FEF7AA
:1022B000A0FE0020FEF79DFE0020FEF79AFE002003
:1022C000FEF797FE0020FEF794FE0020FEF791FE39
:1022D0000020FEF78EFE0020FEF78BFE0020FEF7AA
:1022E00088FE0020FEF785FE0020FEF782FE00201B
:1022F000FEF77FFE0020FEF77CFE0020FEF779FE51
:102300000020FEF776FE0020FEF773FE0020FEF7A9
:1023100070FE0020FEF76DFE0020FEF76AFEB4207E
:10232000FEF75EFE8B20FEF764FE0020FEF761FEE6
:102330009620FEF75EFE0020FEF75BFEA120FEF772
:1023400058FE0020FEF755FEB520FEF749FE02209C
:10235000FEF74FFE0020FEF74CFE0320FEF749FE7D
:102360000020FEF746FE0420FEF743FE0020FEF7A5
:1023700040FEB620FEF734FE0020FEF73AFE0020B5
:10238000FEF737FEB720FEF72BFE0020FEF731FEEA
:102390000020FEF72EFE3F20FEF72BFE0020FEF76A
:1023A00028FE5E20FEF725FE0020FEF722FE6420B8
:1023B000FEF71FFE0020FEF71CFE8C20FEF719FE24
:1023C0000020FEF716FEAC20FEF713FE0020FEF7FD
:1023D00010FEDC20FEF70DFE0020FEF70AFE702046
:1023E000FEF707FE0020FEF704FE9020FEF701FE38
:1023F0000020FEF7FEFDEB20FEF7FBFD0020FEF7C0
:10240000F8FDDC20FEF7F5FD0020FEF7F2FDB82018
:10241000FEF7E6FD0020FEF7ECFD0020FEF7E9FDEB
:102420000020FEF7E6FD0020FEF7E3FD0020FEF7AA
:10243000E0FD0020FEF7DDFD0020FEF7DAFD0020C4
:10244000FEF7D7FDBA20FEF7CBFD2420FEF7D1FD25
:102450000020FEF7CEFD0020FEF7CBFD0020FEF7AA
:10246000C8FDC120FEF7BCFD2020FEF7C2FD002004
:10247000FEF7BFFD5420FEF7BCFD0020FEF7B9FDBE
:10248000FF20FEF7B6FD0020FEF7B3FDC220FEF7E9
:10249000A7FD0A20FEF7ADFD0020FEF7AAFD0420EF
:1024A000FEF7A7FD0020FEF7A4FDC320FEF798FD70
:1024B0003C20FEF79EFD0020FEF79BFD3A20FEF734
:1024C00098FD0020FEF795FD3920FEF792FD0020D3
:1024D000FEF78FFD3720FEF78CFD0020FEF789FD0B
:1024E0003C20FEF786FD0020FEF783FD3620FEF738
:1024F00080FD0020FEF77DFD3220FEF77AFD0020F2
:10250000FEF777FD2F20FEF774FD0020FEF771FD2A
:102510002C20FEF76EFD0020FEF76BFD2920FEF754
:1025200068FD0020FEF765FD2620FEF762FD002015
:10253000FEF75FFD2420FEF75CFD01E0F4020020C1
:102540000020FEF756FD2420FEF753FD0020FEF785
:1025500050FD2320FEF74DFD0020FEF74AFD3C20F4
:10256000FEF747FD0020FEF744FD3620FEF741FD53
:102570000020FEF73EFD3220FEF73BFD0020FEF777
:1025800038FD2F20FEF735FD0020FEF732FD2C2010
:10259000FEF72FFD0020FEF72CFD2920FEF729FD78
:1025A0000020FEF726FD2620FEF723FD0020FEF783
:1025B00020FD2420FEF71DFD0020FEF71AFD24203B
:1025C000FEF717FD0020FEF714FD2320FEF711FD96
:1025D0000020FEF70EFDC420FEF702FD6220FEF78C
:1025E00008FD0020FEF705FD0520FEF702FD002096
:1025F000FEF7FFFC8420FEF7FCFC0020FEF7F9FC50
:10260000F020FEF7F6FC0020FEF7F3FC1820FEF7A2
:10261000F0FC0020FEF7EDFCA420FEF7EAFC002011
:10262000FEF7E7FC1820FEF7E4FC0020FEF7E1FCD3
:102630005020FEF7DEFC0020FEF7DBFC0C20FEF74E
:10264000D8FC0020FEF7D5FC1720FEF7D2FC0020B6
:10265000FEF7CFFC9520FEF7CCFC0020FEF7C9FC6E
:10266000F320FEF7C6FC0020FEF7C3FCE620FEF7D1
:10267000C0FC0020FEF7BDFCC520FEF7B1FC3220F7
:10268000FEF7B7FC0020FEF7B4FC4420FEF7B1FCD7
:102690000020FEF7AEFC6520FEF7ABFC0020FEF745
:1026A000A8FC7620FEF7A5FC0020FEF7A2FC8820FF
:1026B000FEF79FFC0020FEF79CFCC620FEF790FC76
:1026C0002020FEF796FC0020FEF793FC1720FEF773
:1026D00090FC0020FEF78DFC0120FEF78AFC002014
:1026E000FEF787FCC720FEF77BFC0020FEF781FC8D
:1026F0000020FEF77EFC0020FEF77BFC0020FEF7AA
:1027000078FCC820FEF76CFC0020FEF772FC00206D
:10271000FEF76FFC0020FEF76CFC0020FEF769FC62
:10272000C920FEF75DFC0020FEF763FC0020FEF7E9
:1027300060FC0020FEF75DFC0020FEF75AFC002044
:10274000FEF757FC0020FEF754FC0020FEF751FC7A
:102750000020FEF74EFC0020FEF74BFC0020FEF7A9
:1027600048FC0020FEF745FC0020FEF742FC00205C
:10277000FEF73FFC0020FEF73CFC0020FEF739FC92
:102780000020FEF736FCE020FEF72AFC1620FEF7BC
:1027900030FC0020FEF72DFC1C20FEF72AFC002058
:1027A000FEF727FC2120FEF724FC0020FEF721FC89
:1027B0003620FEF71EFC0020FEF71BFC4620FEF72D
:1027C00018FC0020FEF715FC5220FEF712FC00203A
:1027D000FEF70FFC6420FEF70CFC0020FEF709FC5E
:1027E0007A20FEF706FC0020FEF703FC8B20FEF7A4
:1027F00000FC0020FEF7FDFB9920FEF7FAFB00200D
:10280000FEF7F7FBA820FEF7F4FB0020FEF7F1FB34
:10281000B920FEF7EEFB0020FEF7EBFBC420FEF72D
:10282000E8FB0020FEF7E5FBCA20FEF7E2FB0020F4
:10283000FEF7DFFBD220FEF7DCFB0020FEF7D9FB22
:10284000D920FEF7D6FB0020FEF7D3FBE020FEF7F1
:10285000D0FB0020FEF7CDFBF320FEF7CAFB0020E3
:10286000FEF7C7FBE120FEF7BBFB1620FEF7C1FB1E
:102870000020FEF7BEFB1C20FEF7BBFB0020FEF78E
:10288000B8FB2220FEF7B5FB0020FEF7B2FB362096
:10289000FEF7AFFB0020FEF7ACFB4520FEF7A9FBDF
:1028A0000020FEF7A6FB5220FEF7A3FB0020FEF758
:1028B000A0FB6420FEF79DFB0020FEF79AFB7A2028
:1028C000FEF797FB0020FEF794FB8B20FEF791FBB1
:1028D0000020FEF78EFB9920FEF78BFB0020FEF711
:1028E00088FBA820FEF785FB0020FEF782FBB920BD
:1028F000FEF77FFB0020FEF77CFBC420FEF779FB90
:102900000020FEF776FBCA20FEF773FB0020FEF7DF
:1029100070FBD220FEF76DFB0020FEF76AFBD8208B
:10292000FEF767FB0020FEF764FBE020FEF761FB8B
:102930000020FEF75EFBF320FEF75BFB0020FEF7B6
:1029400058FBE220FEF74CFB0520FEF752FB00206F
:10295000FEF74FFB0B20FEF74CFB0020FEF749FB78
:102960001B20FEF746FB0020FEF743FB3420FEF75A
:1029700040FB0020FEF73DFB4420FEF73AFB002021
:10298000FEF737FB4F20FEF734FB0020FEF731FB4C
:102990006120FEF72EFB0020FEF72BFB7920FEF7CF
:1029A00028FB0020FEF725FB8820FEF722FB0020F5
:1029B000FEF71FFB9720FEF71CFB0020FEF719FB1C
:1029C000A620FEF716FB0020FEF713FBB720FEF74C
:1029D00010FB0020FEF70DFBC220FEF70AFB0020D3
:1029E000FEF707FBC720FEF704FB0020FEF701FB04
:1029F000D120FEF7FEFA0020FEF7FBFAD620FEF704
:102A0000F8FA0020FEF7F5FADD20FEF7F2FA0020D2
:102A1000FEF7EFFAF320FEF7ECFA0020FEF7E9FAF2
:102A2000E320FEF7DDFA0520FEF7E3FA0020FEF7CB
:102A3000E0FA0A20FEF7DDFA0020FEF7DAFA1C20A1
:102A4000FEF7D7FA0020FEF7D4FA3320FEF7D1FACA
:102A50000020FEF7CEFA4420FEF7CBFA0020FEF766
:102A6000C8FA5020FEF7C5FA0020FEF7C2FA62202D
:102A7000FEF7BFFA0020FEF7BCFA7820FEF7B9FA9D
:102A80000020FEF7B6FA8820FEF7B3FA0020FEF722
:102A9000B0FA9720FEF7ADFA0020FEF7AAFAA620BA
:102AA000FEF7A7FA0020FEF7A4FAB720FEF7A1FA76
:102AB0000020FEF79EFAC220FEF79BFA0020FEF7E8
:102AC00098FAC720FEF795FA0020FEF792FAD12077
:102AD000FEF78FFA0020FEF78CFAD520FEF789FA70
:102AE0000020FEF786FADD20FEF783FA0020FEF7CD
:102AF00080FAF320FEF77DFA0020FEF77AFAE42050
:102B0000FEF76EFA0120FEF774FA0020FEF771FA64
:102B10000120FEF76EFA0020FEF76BFA0220FEF7A6
:102B200068FA0020FEF765FA2A20FEF762FA002014
:102B3000FEF75FFA3C20FEF75CFA0020FEF759FA38
:102B40004B20FEF756FA0020FEF753FA5D20FEF701
:102B500050FA0020FEF74DFA7420FEF74AFA0020E2
:102B6000FEF747FA8420FEF744FA0020FEF741FA08
:102B70009320FEF73EFA0020FEF73BFAA220FEF774
:102B800038FA0020FEF735FAB320FEF732FA0020BB
:102B9000FEF72FFABE20FEF72CFA0020FEF729FAE6
:102BA000C420FEF726FA0020FEF723FACD20FEF718
:102BB00020FA0020FEF71DFAD320FEF71AFA0020B3
:102BC000FEF717FADD20FEF714FA0020FEF711FADF
:102BD000F320FEF70EFA0020FEF70BFAE520FEF7D1
:102BE000FFF90020FEF705FA0020FEF702FA0020A8
:102BF000FEF7FFF90020FEF7FCF90220FEF7F9F9D5
:102C00000020FEF7F6F92920FEF7F3F90020FEF781
:102C1000F0F93C20FEF7EDF90020FEF7EAF94B2031
:102C2000FEF7E7F90020FEF7E4F95D20FEF7E1F991
:102C30000020FEF7DEF97420FEF7DBF90020FEF736
:102C4000D8F98420FEF7D5F90020FEF7D2F99320B9
:102C5000FEF7CFF90020FEF7CCF9A220FEF7C9F964
:102C60000020FEF7C6F9B320FEF7C3F90020FEF7F7
:102C7000C0F9BE20FEF7BDF90020FEF7BAF9C42066
:102C8000FEF7B7F90020FEF7B4F9CD20FEF7B1F951
:102C90000020FEF7AEF9D320FEF7ABF90020FEF7D7
:102CA000A8F9DC20FEF7A5F90020FEF7A2F9F32031
:102CB000FEF79FF90020FEF79CF9E620FEF790F959
:102CC0001120FEF796F90020FEF793F93420FEF765
:102CD00090F90020FEF78DF95620FEF78AF90020C2
:102CE000FEF787F97620FEF784F90020FEF781F9D8
:102CF0007720FEF77EF90020FEF77BF96620FEF7CD
:102D000078F90020FEF775F98820FEF772F90020A7
:102D1000FEF76FF99920FEF76CF90020FEF769F9CC
:102D2000BB20FEF766F90020FEF763F99920FEF755
:102D300060F90020FEF75DF96620FEF75AF90020E1
:102D4000FEF757F95520FEF754F90020FEF751F928
:102D50005520FEF74EF90020FEF74BF94520FEF70F
:102D600048F90020FEF745F94320FEF742F900201C
:102D7000FEF73FF94420FEF73CF90020FEF739F951
:102D8000E720FEF72DF93220FEF733F90020FEF799
:102D900030F95520FEF72DF90020FEF72AF97620AC
:102DA000FEF727F90020FEF724F96620FEF721F947
:102DB0000020FEF71EF96720FEF71BF90020FEF742
:102DC00018F96720FEF715F90020FEF712F98720A1
:102DD000FEF70FF90020FEF70CF99920FEF709F92C
:102DE0000020FEF706F9BB20FEF703F90020FEF7EE
:102DF00000F99920FEF7FDF80020FEF7FAF8772099
:102E0000FEF7F7F80020FEF7F4F84420FEF7F1F89B
:102E10000020FEF7EEF85620FEF7EBF80020FEF754
:102E2000E8F82320FEF7E5F80020FEF7E2F833206B
:102E3000FEF7DFF80020FEF7DCF84520FEF7D9F8B2
:102E40000020FEF7D6F8E820FEF7CAF80020FEF7CB
:102E5000D0F80020FEF7CDF89920FEF7CAF8002040
:102E6000FEF7C7F88720FEF7C4F80020FEF7C1F888
:102E70008820FEF7BEF80020FEF7BBF87720FEF7AB
:102E8000B8F80020FEF7B5F86620FEF7B2F800208B
:102E9000FEF7AFF88820FEF7ACF80020FEF7A9F89F
:102EA000AA20FEF7A6F80020FEF7A3F8BB20FEF745
:102EB000A0F80020FEF79DF89920FEF79AF8002070
:102EC000FEF797F86620FEF794F80020FEF791F8D9
:102ED0005520FEF78EF80020FEF78BF85520FEF700
:102EE00088F80020FEF785F84420FEF782F80020DD
:102EF000FEF77FF84420FEF77CF80020FEF779F813
:102F00005520FEF776F80020FEF773F8E920FEF76B
:102F100067F8AA20FEF76DF80020FEF76AF8002097
:102F2000FEF767F80020FEF764F80020FEF758F877
:102F3000AA20FEF75EF8CF20FEF752F80020FEF739
:102F400058F80020FEF755F80020FEF752F8002050
:102F5000FEF74FF80020FEF74CF80020FEF749F886
:102F60000020FEF746F80020FEF743F80020FEF7A9
:102F700040F80020FEF73DF80020FEF73AF8002068
:102F8000FEF737F80020FEF734F80020FEF731F89E
:102F90000020FEF72EF80020FEF72BF80020FEF7A9
:102FA00028F8F020FEF71CF80020FEF722F8502049
:102FB000FEF71FF80020FEF71CF80020FEF719F8B6
:102FC0000020FEF716F8F320FEF70AF80020FEF7BF
:102FD00010F8F920FEF704F80620FEF70AF8102092
:102FE000FEF707F82920FEF704F80020FEF701F8A5
:102FF0003A20FDF7F5FF5520FDF7FBFF1120FDF707
:10300000EFFF6420FDF7CCF92920FDF7E9FF35201B
:10301000FDF7E6FF0020FDF7ECFF5120FDF7E0FF94
:10302000FF20FDF7E6FF5320FDF7DAFF2C20FDF728
:10303000E0FF5520FDF7D4FF8220FDF7DAFF2C20BA
:10304000FDF7CEFF02F0EBB8FE48808845F2105144
:1030500088427DD155214FF47040FDF7DCFFAA2155
:103060004FF20100FDF7D7FF52214FF20200FDF7AA
:10307000D2FF08214FF20300FDF7CDFF01214FF2EF
:103080000400FDF7C8FF0D214FF43040FDF7C3FFEA
:103090000D214BF20100FDF7BEFF0D214BF20200A6
:1030A000FDF7B9FF34214FF43640FDF7B4FF34216A
:1030B0004BF20160FDF7AFFF34214BF20260FDF7E8
:1030C000AAFF0D214FF43140FDF7A5FF0D214BF272
:1030D0000110FDF7A0FF0D214BF20210FDF79BFF41
:1030E00034214FF43740FDF796FF34214BF2017045
:1030F000FDF791FF34214BF20270FDF78CFF0021A8
:103100004FF43240FDF787FF00214BF20120FDF71D
:1031100082FF00214BF20220FDF77DFF24214FF4B6
:103120003840FDF778FF24214BF60100FDF773FFCF
:1031300024214BF60200FDF76EFF01214FF43F40C2
:10314000FDF769FF0F214FF43340FDF764FF00E006
:10315000FDE30F214BF20130FDF75DFF0F214BF234
:103160000230FDF758FF34214FF43940FDF753FF8B
:1031700034214BF60110FDF74EFF34214BF60210BF
:10318000FDF749FF08214FF43540FDF744FF0821C2
:103190004BF20150FDF73FFF08214BF20250FDF7C3
:1031A0003AFF03214FF44240FDF735FF24214FF44D
:1031B0003A40FDF730FF24214BF60120FDF72BFFAD
:1031C00024214BF60220FDF726FF00214FF43C405E
:1031D000FDF721FF78214BF60140FDF71CFF002190
:1031E0004BF60240FDF717FF00214FF43D40FDF77D
:1031F00012FF78214BF60150FDF70DFF00214BF631
:103200000250FDF708FF00214FF43E40FDF703FF99
:1032100064214BF60160FDF7FEFE00214FF45140A2
:10322000FDF7F9FE33214DF20110FDF7F4FE002108
:103230004DF20210FDF7EFFE34214DF20310FDF7C1
:10324000EAFE00214DF20410FDF7E5FE3A214DF2B1
:103250000510FDF7E0FE00214DF20610FDF7DBFE44
:103260004A214DF20710FDF7D6FE00214DF208105D
:10327000FDF7D1FE5C214DF20910FDF7CCFE0021D7
:103280004DF20A10FDF7C7FE81214DF20B10FDF73C
:10329000C2FE00214DF20C10FDF7BDFEA6214DF23D
:1032A0000D10FDF7B8FE00214DF20E10FDF7B3FE34
:1032B000E5214DF20F10FDF7AEFE01214DF2101089
:1032C000FDF7A9FE13214DF21110FDF7A4FE012117
:1032D0004DF21210FDF79FFE54214DF21310FDF731
:1032E0009AFE01214DF21410FDF795FE82214DF258
:1032F0001510FDF790FE01214DF21610FDF78BFE23
:10330000CA214DF21710FDF786FE02214DF218106A
:10331000FDF781FE00214DF21910FDF77CFE022120
:103320004DF21A10FDF777FE01214DF21B10FDF74B
:1033300072FE02214DF21C10FDF76DFE34214DF29C
:103340001D10FDF768FE02214DF21E10FDF763FE11
:1033500067214DF21F10FDF75EFE02214DF2201095
:10336000FDF759FE84214DF22110FDF754FE022194
:103370004DF22210FDF74FFEA4214DF22310FDF770
:103380004AFE02214DF22410FDF745FEB7214DF211
:103390002510FDF740FE02214DF22610FDF73BFE01
:1033A000CF214DF22710FDF736FE02214DF22810F5
:1033B000FDF731FEDE214DF22910FDF72CFE022132
:1033C0004DF22A10FDF727FEF2214DF22B10FDF7EA
:1033D00022FE02214DF22C10FDF71DFEFE214DF2C2
:1033E0002D10FDF718FE03214DF22E10FDF713FEF0
:1033F00010214DF22F10FDF70EFE03214DF230107B
:10340000FDF709FE33214DF23110FDF704FE0321D3
:103410004DF23210FDF7FFFD6D214DF23310FDF737
:10342000FAFD00214FF45240FDF7F5FD33214DF236
:103430000120FDF7F0FD00214DF20220FDF7EBFD2C
:10344000342101E0F40200204DF20320FDF7E3FDFA
:1034500000214DF20420FDF7DEFD3A214DF205205A
:10346000FDF7D9FD00214DF20620FDF7D4FD4A21DC
:103470004DF20720FDF7CFFD00214DF20820FDF7AA
:10348000CAFD5C214DF20920FDF7C5FD00214DF27A
:103490000A20FDF7C0FD81214DF20B20FDF7BBFD99
:1034A00000214DF20C20FDF7B6FDA6214DF20D20B6
:1034B000FDF7B1FD00214DF20E20FDF7ACFDE52139
:1034C0004DF20F20FDF7A7FD01214DF21020FDF771
:1034D000A2FD13214DF21120FDF79DFD01214DF2BA
:1034E0001220FDF798FD54214DF21320FDF793FDB6
:1034F00001214DF21420FDF78EFD82214DF21520A1
:10350000FDF789FD01214DF21620FDF784FDCA214A
:103510004DF21720FDF77FFD02214DF21820FDF737
:103520007AFD00214DF21920FDF775FD02214DF2C3
:103530001A20FDF770FD01214DF21B20FDF76BFDF8
:1035400002214DF21C20FDF766FD34214DF21D20B5
:10355000FDF761FD02214DF21E20FDF75CFD6721A4
:103560004DF21F20FDF757FD02214DF22020FDF7FF
:1035700052FD84214DF22120FDF74DFD02214DF237
:103580002220FDF748FDA4214DF22320FDF743FD45
:1035900002214DF22420FDF73EFDB7214DF22520FA
:1035A000FDF739FD02214DF22620FDF734FDCF2134
:1035B0004DF22720FDF72FFD02214DF22820FDF7C7
:1035C0002AFDDE214DF22920FDF725FD02214DF2D5
:1035D0002A20FDF720FDF2214DF22B20FDF71BFDE7
:1035E00002214DF22C20FDF716FDFE214DF22D207B
:1035F000FDF711FD03214DF22E20FDF70CFD1021EA
:103600004DF22F20FDF707FD03214DF23020FDF78D
:1036100002FD33214DF23120FDF7FDFC03214DF277
:103620003220FDF7F8FC6D214DF23320FDF7F3FC5D
:1036300000214FF45340FDF7EEFC33214DF20130F1
:10364000FDF7E9FC00214DF20230FDF7E4FC3421E6
:103650004DF20330FDF7DFFC00214DF20430FDF7A1
:10366000DAFC3A214DF20530FDF7D5FC00214DF290
:103670000630FDF7D0FC4A214DF20730FDF7CBFCB8
:1036800000214DF20830FDF7C6FC5C214DF20930F7
:10369000FDF7C1FC00214DF20A30FDF7BCFC812191
:1036A0004DF20B30FDF7B7FC00214DF20C30FDF769
:1036B000B2FCA6214DF20D30FDF7ADFC00214DF21C
:1036C0000E30FDF7A8FCE5214DF20F30FDF7A3FC0D
:1036D00001214DF21030FDF79EFC13214DF2113007
:1036E000FDF799FC01214DF21230FDF794FC5421B5
:1036F0004DF21330FDF78FFC01214DF21430FDF730
:103700008AFC82214DF21530FDF785FC01214DF236
:103710001630FDF780FCCA214DF21730FDF77BFC17
:1037200002214DF21830FDF776FC00214DF21930E0
:10373000FDF771FC02214DF21A30FDF76CFC0121FE
:103740004DF21B30FDF767FC02214DF21C30FDF7F6
:1037500062FC34214DF21D30FDF75DFC02214DF27B
:103760001E30FDF758FC67214DF21F30FDF753FC6A
:1037700002214DF22030FDF74EFC84214DF2213024
:10378000FDF749FC02214DF22230FDF744FCA42153
:103790004DF22330FDF73FFC02214DF22430FDF7BE
:1037A0003AFCB7214DF22530FDF735FC02214DF2F0
:1037B0002630FDF730FCCF214DF22730FDF72BFCF2
:1037C00002214DF22830FDF726FCDE214DF2293092
:1037D000FDF721FC02214DF22A30FDF71CFCF221FD
:1037E0004DF22B30FDF717FC02214DF22C30FDF786
:1037F00012FCFE214DF22D30FDF70DFC03214DF2A0
:103800002E30FDF708FC10214DF22F30FDF703FCA0
:1038100003214DF23030FDF7FEFB33214DF2313004
:10382000FDF7F9FB03214DF23230FDF7F4FB6D217A
:103830004DF23330FDF7EFFB00214FF45440FDF71C
:10384000EAFB33214DF20140FDF7E5FB00214DF28B
:103850000240FDF7E0FB34214DF20340FDF7DBFBB6
:1038600000214DF20440FDF7D6FB3A214DF2054010
:10387000FDF7D1FB00214DF20640FDF7CCFB4A21BC
:103880004DF20740FDF7C7FB00214DF20840FDF760
:10389000C2FB5C214DF20940FDF7BDFB00214DF25A
:1038A0000A40FDF7B8FB81214DF20B40FDF7B3FB59
:1038B00000214DF20C40FDF7AEFBA6214DF20D406C
:1038C000FDF7A9FB00214DF20E40FDF7A4FBE52119
:1038D0004DF20F40FDF79FFB01214DF21040FDF727
:1038E0009AFB13214DF21140FDF795FB01214DF29A
:1038F0001240FDF790FB54214DF21340FDF78BFB76
:1039000001214DF21440FDF786FB82214DF2154056
:10391000FDF781FB01214DF21640FDF77CFBCA212A
:103920004DF21740FDF777FB02214DF21840FDF7ED
:1039300072FB00214DF21940FDF76DFB02214DF2A3
:103940001A40FDF768FB01214DF21B4000E006E341
:10395000FDF761FB02214DF21C40FDF75CFB3421B9
:103960004DF21D40FDF757FB02214DF21E40FDF7C1
:1039700052FB67214DF21F40FDF74DFB02214DF236
:103980002040FDF748FB84214DF22140FDF743FB29
:1039900002214DF22240FDF73EFBA4214DF22340CF
:1039A000FDF739FB02214DF22440FDF734FBB7212E
:1039B0004DF22540FDF72FFB02214DF22640FDF789
:1039C0002AFBCF214DF22740FDF725FB02214DF2C6
:1039D0002840FDF720FBDE214DF22940FDF71BFBBF
:1039E00002214DF22A40FDF716FBF2214DF22B4049
:1039F000FDF711FB02214DF22C40FDF70CFBFE21DF
:103A00004DF22D40FDF707FB03214DF22E40FDF74F
:103A100002FB10214DF22F40FDF7FDFA03214DF27C
:103A20003040FDF7F8FA33214DF23140FDF7F3FA5B
:103A300003214DF23240FDF7EEFA6D214DF2334095
:103A4000FDF7E9FA00214FF45540FDF7E4FA332180
:103A50004DF20150FDF7DFFA00214DF20250FDF763
:103A6000DAFA34214DF20350FDF7D5FA00214DF278
:103A70000450FDF7D0FA3A214DF20550FDF7CBFA8C
:103A800000214DF20650FDF7C6FA4A214DF20750CB
:103A9000FDF7C1FA00214DF20850FDF7BCFA5C2198
:103AA0004DF20950FDF7B7FA00214DF20A50FDF72B
:103AB000B2FA81214DF20B50FDF7ADFA00214DF223
:103AC0000C50FDF7A8FAA6214DF20D50FDF7A3FA10
:103AD00000214DF20E50FDF79EFAE5214DF20F50F8
:103AE000FDF799FA01214DF21050FDF794FA1321D8
:103AF0004DF21150FDF78FFA01214DF21250FDF7F2
:103B00008AFA54214DF21350FDF785FA01214DF246
:103B10001450FDF780FA82214DF21550FDF77BFA23
:103B200001214DF21650FDF776FACA214DF21750D9
:103B3000FDF771FA02214DF21850FDF76CFA0021E1
:103B40004DF21950FDF767FA02214DF21A50FDF7B8
:103B500062FA01214DF21B50FDF75DFA02214DF290
:103B60001C50FDF758FA34214DF21D50FDF753FA61
:103B700002214DF21E50FDF74EFA67214DF21F5003
:103B8000FDF749FA02214DF22050FDF744FA842155
:103B90004DF22150FDF73FFA02214DF22250FDF780
:103BA0003AFAA4214DF22350FDF735FA02214DF2E5
:103BB0002450FDF730FAB7214DF22550FDF72BFACE
:103BC00002214DF22650FDF726FACF214DF2275063
:103BD000FDF721FA02214DF22850FDF71CFADE21F3
:103BE0004DF22950FDF717FA02214DF22A50FDF748
:103BF00012FAF2214DF22B50FDF70DFA02214DF28F
:103C00002C50FDF708FAFE214DF22D50FDF703FA76
:103C100003214DF22E50FDF7FEF910214DF22F50E9
:103C2000FDF7F9F903214DF23050FDF7F4F9332196
:103C30004DF23150FDF7EFF903214DF23250FDF70F
:103C4000EAF96D214DF23350FDF7E5F900214FF40B
:103C50005640FDF7E0F933214DF20160FDF7DBF945
:103C600000214DF20260FDF7D6F934214DF20360D8
:103C7000FDF7D1F900214DF20460FDF7CCF93A21AE
:103C80004DF20560FDF7C7F900214DF20660FDF722
:103C9000C2F94A214DF20760FDF7BDF900214DF24E
:103CA0000860FDF7B8F95C214DF20960FDF7B3F942
:103CB00000214DF20A60FDF7AEF981214DF20B6053
:103CC000FDF7A9F900214DF20C60FDF7A4F9A6213A
:103CD0004DF20D60FDF79FF900214DF20E60FDF7EA
:103CE0009AF9E5214DF20F60FDF795F901214DF2AA
:103CF0001060FDF790F913214DF21160FDF78BF97B
:103D000001214DF21260FDF786F954214DF2136046
:103D1000FDF781F901214DF21460FDF77CF9822154
:103D20004DF21560FDF777F901214DF21660FDF7B0
:103D300072F9CA214DF21760FDF76DF902214DF2BB
:103D40001860FDF768F900214DF21960FDF763F97D
:103D500002214DF21A60FDF75EF901214DF21B6060
:103D6000FDF759F902214DF21C60FDF754F9342199
:103D70004DF21D60FDF74FF902214DF21E60FDF777
:103D80004AF967214DF21F60FDF745F902214DF216
:103D90002060FDF740F984214DF22160FDF73BF9E9
:103DA00002214DF22260FDF736F9A4214DF2236085
:103DB000FDF731F902214DF22460FDF72CF9B7210E
:103DC0004DF22560FDF727F902214DF22660FDF73F
:103DD00022F9CF214DF22760FDF71DF902214DF2A6
:103DE0002860FDF718F9DE214DF22960FDF713F97F
:103DF00002214DF22A60FDF70EF9F2214DF22B60FF
:103E0000FDF709F902214DF22C60FDF704F9FE21BE
:103E10004DF22D60FDF7FFF803214DF22E60FDF706
:103E2000FAF810214DF22F60FDF7F5F803214DF25D
:103E30003060FDF7F0F833214DF23160FDF7EBF81B
:103E400003214DF23260FDF7E6F86D214DF233604B
:103E5000FDF7E1F855214FF47040FDF7DCF8AA2199
:103E60004FF20100FDF7D7F852214FF20200FDF7A3
:103E7000D2F808214FF20300FDF7CDF800214FF2F0
:103E80000400FDF7C8F8CC214FF43140FDF7C3F82A
:103E900000214BF20110FDF7BEF805214FF436402A
:103EA000FDF7B9F870214FF43740FDF7B4F87021F1
:103EB0004BF20170FDF7AFF801214FF43840FDF7E8
:103EC000AAF803214BF60100FDF7A5F803214BF6F4
:103ED0000200FDF7A0F803214BF60300FDF79BF865
:103EE00002214FF43C40FDF796F800214BF60140CB
:103EF000FDF791F800214BF60240FDF78CF8D02138
:103F00004FF44940FDF787F802214CF60110FDF708
:103F100082F850214CF60210FDF77DF850214CF646
:103F20000310FDF778F850214CF60410FDF773F8F4
:103F300000214FF45450FDF76EF855214FF46850AE
:103F4000FDF769F84FF48850FDF74AF87820FCF740
:103F50000BFA4FF42450FDF743F801F060B9FE4826
:103F6000808849F2253188427ED147F6F001E5206C
:103F7000FDF751F84FF480710120FDF74CF84FF434
:103F8000E0610220FDF747F841F230010320FDF720
:103F900042F800210420FDF73EF840F202210820FB
:103FA000FDF739F800210920FDF735F800210A2036
:103FB000FDF731F800210C20FDF72DF800210D2030
:103FC000FDF729F800210F20FDF725F8002110202A
:103FD000FDF721F807211120FDF71DF8002112201F
:103FE000FDF719F800211320FDF715F8002107202F
:103FF000FDF711F841F290611020FDF70CF840F246
:1040000027211120FDF707F89D211220FDF703F865
:104010004FF4C8511320FCF7FEFF25212920FCF79F
:10402000FAFF0D212B20FCF7F6FF07213020FCF7CB
:10403000F2FF40F203313120FCF7EDFF0321322083
:10404000FCF7E9FF40F206213520FCF7E4FF0821E8
:104050003620FCF7E0FF40F206413720FCF7DBFF9B
:104060004FF44171382000E057E0FCF7D4FF0721FE
:104070003920FCF7D0FF40F202613C20FCF7CBFF77
:1040800008213D20FCF7C7FF00215020FCF7C3FFAB
:10409000EF215120FCF7BFFF00215220FCF7BBFFAE
:1040A00040F23F115320FCF7B6FF4FF42741602048
:1040B000FCF7B1FF01216120FCF7ADFF00216A2070
:1040C000FCF7A9FF00218020FCF7A5FF002181203B
:1040D000FCF7A1FF00218220FCF79DFF0021832037
:1040E000FCF799FF00218420FCF795FF0021852033
:1040F000FCF791FF10219020FCF78DFF4FF4C06179
:104100009220FCF788FF40F233110720FCF783FF71
:1041100022210020FCF77FFF1FE78F48808849F2AB
:10412000283188427ED141F28F01EC20FCF773FFE9
:1041300041F23421EF20FCF76EFF4FF48071012033
:10414000FCF769FF4FF4E0610220FCF764FF41F2E5
:1041500030010320FCF75FFF00210420FCF75BFF28
:1041600040F202210820FCF756FF00210920FCF74D
:1041700052FF00210A20FCF74EFF01210C20FCF722
:104180004AFF00210D20FCF746FF00210F20FCF71D
:1041900042FF00211020FCF73EFF07211120FCF711
:1041A0003AFF00211220FCF736FF00211320FCF714
:1041B00032FF01210720FCF72EFF3220FCF7F0F838
:1041C00041F290411020FCF726FF40F227211120F8
:1041D000FCF721FF3220FCF7E3F88A211220FCF7DC
:1041E0001AFF3220FCF7DCF84FF4D0511320FCF713
:1041F00012FF06212920FCF70EFF0D212B20FCF7D2
:104200000AFF3220FCF7CCF800212020FCF703FF46
:1042100000212120FCF7FFFE3220FCF7C1F800212D
:10422000302000E074E0FCF7F6FE40F2046131203B
:10423000FCF7F1FE40F205313220FCF7ECFE0021E4
:104240003520FCF7E8FE40F609413620FCF7E3FE96
:104250004FF401713720FCF7DEFE40F201313820C7
:10426000FCF7D9FE40F207713920FCF7D4FE00219B
:104270003C20FCF7D0FE40F60A213D20FCF7CBFEA7
:104280003220FCF78DF800215020FCF7C4FEEF210E
:104290005120FCF7C0FE00215220FCF7BCFE40F28A
:1042A0003F115320FCF7B7FE4FF427416020FCF785
:1042B000B2FE01216120FCF7AEFE00216A20FCF76E
:1042C000AAFE00218020FCF7A6FE00218120FCF739
:1042D000A2FE00218220FCF79EFE00218320FCF735
:1042E0009AFE00218420FCF796FE00218520FCF731
:1042F00092FE10219020FCF78EFE4FF4C0619220B8
:10430000FCF789FE40F233110720FCF784FE24E617
:104310001148808849F2203188427DD10021084629
:10432000FCF779FE4FF480710120FCF774FE4FF426
:10433000E0610220FCF76FFE41F230010320FCF740
:104340006AFE00210420FCF766FE40F202210820EC
:10435000FCF761FE002101E0F40200200920FCF7D7
:104360005AFE00210A20FCF756FE01210C20FCF722
:1043700052FE00210D20FCF74EFE00210F20FCF71D
:104380004AFE3220FCF70CF840F201110720FCF73E
:1043900042FE3220FCF704F84FF486511020FCF75F
:1043A0003AFE07211120FCF736FE4FF488711220E7
:1043B000FCF731FE4FF430611320FCF72CFE002196
:1043C0002920FCF728FE44F210012B20FCF723FEE5
:1043D00000215020FCF71FFEEF215120FCF71BFEAF
:1043E00000215220FCF717FE40F23F115320FCF74A
:1043F00012FE4FF41C516020FCF70DFE01216120DC
:10440000FCF709FE00216A20FCF705FE0021802050
:10441000FCF701FE002100E031E08120FCF7FBFD0C
:1044200000218220FCF7F7FD00218320FCF7F3FD3B
:1044300000218420FCF7EFFD00218520FCF7EBFD37
:1044400010219020FCF7E7FD00219220FCF7E3FD0E
:1044500001219320FCF7DFFD4FF488719520FCF7D4
:10446000DAFD00219720FCF7D6FD00219820FCF70B
:10447000D2FD40F273110720FCF7CDFD6DE5FE483B
:10448000808849F2313188427DD141F21401E72020
:10449000FCF7C1FD4FF480710120FCF7BCFD4FF427
:1044A00000710220FCF7B7FD41F238010320FCF750
:1044B000B2FD40F202210820FCF7ADFD00210920E9
:1044C000FCF7A9FD00210A20FCF7A5FD00210C2026
:1044D000FCF7A1FD00210D20FCF79DFD00210F2020
:1044E000FCF799FD00211020FCF795FD0721112014
:1044F000FCF791FD00211220FCF78DFD0021132017
:10450000FCF789FDC820FBF74BFF41F290611020BA
:10451000FCF781FD40F227211120FCF77CFD3220C1
:10452000FBF73EFF0C211220FCF775FD3220FBF754
:1045300037FF4FF400611320FCF76DFD1121292096
:10454000FCF769FD0B212B20FCF765FD3220FBF702
:1045500027FF00212020FCF75EFD40F23F112120C3
:10456000FCF759FD00213020FCF755FD4FF4837115
:104570003120FCF750FD00213220FCF74CFD4FF4B8
:104580000171352000E064E0FCF745FD41F20A616D
:104590003620FCF740FD40F207713720FCF73BFD69
:1045A0004FF483713820FCF736FD40F20771392053
:1045B000FCF731FD40F202413C20FCF72CFD40F6B7
:1045C0000F413D20FCF727FD00215020FCF723FD83
:1045D000EF215120FCF71FFD00215220FCF71BFDAD
:1045E00040F23F115320FCF716FD4FF41C516020A0
:1045F000FCF711FD01216120FCF70DFD00216A206F
:10460000FCF709FD00218020FCF705FD0021812039
:10461000FCF701FD00218220FCF7FDFC0021832036
:10462000FCF7F9FC00218420FCF7F5FC0021852033
:10463000FCF7F1FC10219020FCF7EDFC4FF4C06179
:104640009220FCF7E8FC40F233110720FCF7E3FC72
:1046500083E48948808845F2084188427ED14FF43E
:1046600080710120FCF7D7FC4FF4E0610220FCF7D9
:10467000D2FC41F230010320FCF7CDFC00210420E4
:10468000FCF7C9FC40F207210820FCF7C4FC00211C
:104690000920FCF7C0FC00210A20FCF7BCFC00212B
:1046A0000C20FCF7B8FC00210D20FCF7B4FC002125
:1046B0000F20FCF7B0FC1420FBF772FE41F2B06152
:1046C0001020FCF7A8FC01211120FCF7A4FC01211B
:1046D0001720FCF7A0FC4FF49C711220FCF79BFC08
:1046E0004FF400611320FCF796FC09212920FCF708
:1046F00092FC09212A20FCF78EFC0021A420FCF763
:104700008AFC00215020FCF786FCEF215120FCF7A9
:1047100082FC00215220FCF77EFC40F23F11532026
:10472000FCF779FC4FF41C516020FCF774FC01216C
:104730006120FCF770FC00216A20FCF76CFC002172
:104740008020FCF768FC00218120FCF764FC00213C
:104750008220FCF760FC0021832000E023E0FCF7CE
:104760005AFC00218420FCF756FC00218520FCF730
:1047700052FC13219020FCF74EFC00219220FCF704
:104780004AFC03219320FCF746FC4FF488719520E6
:10479000FCF741FC40F273110720FCF73CFC32208F
:1047A000FBF7FEFDB8E43448808841F205518842A9
:1047B0007ED100210720FCF72EFC3220FBF7F0FD14
:1047C0004FF48E711220FCF726FC0121A420FCF787
:1047D00022FC0F210820FCF71EFC08210A20FCF710
:1047E0001AFC08210D20FCF716FC40F2077130205E
:1047F000FCF711FC07213120FCF70DFC40F20361AE
:104800003220FCF708FC4FF4E0613320FCF703FC96
:1048100040F202213420FCF7FEFB02213520FCF798
:10482000FAFB41F60F713620FCF7F5FB40F20771F9
:104830003720FCF7F0FB00213820FCF7ECFB0021CF
:104840003920FCF7E8FB40F207713A20FCF7E3FB64
:1048500000213B20FCF7DFFB07213C20FCF7DBFBC2
:1048600000213D20FCF7D7FB3220FBF799FD012109
:104870000720FCF7D0FB01E0F40200200121172003
:10488000FCF7C9FB3220FBF78BFD4FF4BD51102024
:10489000FCF7C1FB40F217211120FCF7BCFB4FF4E1
:1048A0008F711220FCF7B7FB4FF47061132000E00A
:1048B00097E0FCF7B0FB00212A20FCF7ACFB0A21B3
:1048C0002920FCF7A8FB4FF49F711220FCF7A3FBF3
:1048D00000215020FCF79FFBEF215120FCF79BFBB0
:1048E00000215220FCF797FB40F23F115320FCF7C8
:1048F00092FB4FF41C516020FCF78DFB01216120DD
:10490000FCF789FB00216A20FCF785FB0021802051
:10491000FCF781FB00218120FCF77DFB0021822038
:10492000FCF779FB00218320FCF775FB0021842034
:10493000FCF771FB00218520FCF76DFB1321902013
:10494000FCF769FB4FF440719220FCF764FB0521F2
:104950009320FCF760FB00219520FCF75CFB002115
:104960009720FCF758FB00219820FCF754FB4FF4EC
:1049700080710120FCF74FFB4FF4E0610220FCF74F
:104980004AFB41F238010320FCF745FB00210420DB
:10499000FCF741FB00210C20FCF73DFB00210F2020
:1049A000FCF739FB00212020FCF735FB00212120FA
:1049B000FCF731FB21210720FCF72DFB1420FBF72E
:1049C000EFFC61210720FCF726FB1420FBF7E8FC35
:1049D00040F273110720FCF71EFB1420FBF7E0FCEC
:1049E00095E4FE4880884BF2055188427ED1002133
:1049F0000846FCF710FB00210846FCF70CFB0021E1
:104A00000846FCF708FB00210846FCF704FB0121DF
:104A1000A420FCF700FB1420FBF7C2FC4FF41C5150
:104A20006020FCF7F8FA40F202210820FCF7F3FAC4
:104A30004FF405713020FCF7EEFA43F21571312086
:104A4000FCF7E9FA40F204613220FCF7E4FA40F6A0
:104A500016613320FCF7DFFA42F211213420FCF713
:104A6000DAFA4FF4A8513520FCF7D5FA48F207518D
:104A70003620FCF7D0FA41F207413720FCF7CBFA99
:104A800041F203413820FCF7C6FA20213920FCF717
:104A9000C2FA1A219020FCF7BEFA00211020FCF780
:104AA000BAFA07211120FCF7B6FA00211220FCF710
:104AB000B2FA00211320FCF7AEFA1420FBF770FCC9
:104AC0004FF4E6611020FCF7A6FA40F237111120EE
:104AD000FCF7A1FA1420FBF763FC4FF4DC71122001
:104AE000FCF799FA1420FBF75BFC00E083E04FF43D
:104AF00070611320FCF78FFA80212A20FCF78BFAD3
:104B000048212920FCF787FA1420FBF749FC4FF4D1
:104B100080710120FCF77FFA4FF4E0610220FCF77E
:104B20007AFA41F238010320FCF775FA40F20221CB
:104B30000820FCF770FA00210A20FCF76CFA00212B
:104B40000C20FCF768FA00210D20FCF764FA3021F4
:104B50000E20FCF760FA00215020FCF75CFAEF21F0
:104B60005120FCF758FA00215220FCF754FA40F289
:104B70003F115320FCF74FFA4FF41C516020FCF713
:104B80004AFA01216120FCF746FA00216A20FCF76D
:104B900042FA11219020FCF73EFA4FF4C0619220B6
:104BA000FCF739FA40F202419320FCF734FA022173
:104BB0009420FCF730FA1420FBF7F2FB01210720C8
:104BC000FCF729FA1420FBF7EBFB61210720FCF727
:104BD00022FA40F273110720FCF71DFA0021202071
:104BE000FCF719FA00212120FCF715FA22210020F8
:104BF000FCF711FA13E3794880884CF2055188429A
:104C00007ED100210846FCF706FA00210846FCF791
:104C100002FA1420FBF7C4FB00210846FCF7FBF95D
:104C200000210846FCF7F7F900210846FCF7F3F9E4
:104C300000210846FCF7EFF90121A420FCF7EBF96D
:104C40001420FBF7ADFB4FF41C516020FCF7E3F997
:104C500040F606010820FCF7DEF940F2037130202F
:104C6000FCF7D9F901213120FCF7D5F904213220D4
:104C7000FCF7D1F94FF481713320FCF7CCF94FF4F4
:104C800040713420FCF7C7F940F203113520FCF7DE
:104C9000C2F91F213620FCF7BEF940F2037137201C
:104CA000FCF7B9F901213820FCF7B5F904213920C6
:104CB000FCF7B1F915219020FCF7ADF94FF48261B2
:104CC0001020FCF7A8F940F247211120FCF7A3F9C6
:104CD0004FF4DE711220FCF79EF94FF4606113204F
:104CE000FCF799F97820FBF75BFB4FF4807101200A
:104CF000FCF791F94FF400710220FCF78CF900E009
:104D000050E041F230010320FCF785F908210A2028
:104D1000FCF781F900210C20FCF77DF920210E2001
:104D2000FCF779F900210F20FCF775F9002120200C
:104D3000FCF771F900212120FCF76DF93D212A20B3
:104D4000FCF769F91420FBF72BFB2D212920FCF738
:104D500062F900215020FCF75EF94DF2EF0151207D
:104D6000FCF759F900215220FCF755F940F23F11A8
:104D70005320FCF750F900216120FCF74CF9002189
:104D80006A20FCF748F94FF440719220FCF743F990
:104D900005219320FCF73FF94FF480710720FCF7C1
:104DA0003AF93CE20D48808848F6891188427DD165
:104DB00001210020FCF72FF94AF6A4010320FCF79B
:104DC0002AF900210C20FCF726F940F60C010D20F1
:104DD000FCF721F94FF42C510E2001E0F4020020E1
:104DE000FCF719F9B0211E20FCF715F942F63F3106
:104DF0000120FCF710F94FF4C0610220FCF70BF919
:104E000000211020FCF707F946F278011120FCF789
:104E100002F900210520FCF7FEF800210620FCF72E
:104E2000FAF84EF61C711620FCF7F5F8032117204E
:104E3000FCF7F1F840F233210720FCF7ECF80021F1
:104E40000B20FCF7E8F800210F20FCF7E4F8002124
:104E50004120FCF7E0F800214220FCF7DCF80021BB
:104E60004820FCF7D8F840F23F114920FCF7D3F86E
:104E700000214A20FCF7CFF800214B20FCF7CBF8AB
:104E80004FF46F414420FCF7C6F800214520FCF7A1
:104E9000C2F840F23F114620FCF7BDF840F207711E
:104EA0003020FCF7B8F84FF4017100E040E0312009
:104EB000FCF7B1F84FF401713220FCF7ACF840F286
:104EC00002513320FCF7A7F840F207513420FCF7D9
:104ED000A2F84FF401713520FCF79DF84FF40171F1
:104EE0003620FCF798F840F202513720FCF793F88F
:104EF00040F202313A20FCF78EF840F202313B20BA
:104F0000FCF789F800212320FCF785F800212420F4
:104F1000FCF781F84FF400412520FCF77CF80021D4
:104F20004F20FCF778F800214E20FCF774F876E16A
:104F3000F748808844F2315188427DD10121002018
:104F4000FCF769F80A20FBF72BFA41F228611020E0
:104F5000FCF761F80E211220FCF75DF840F63921CC
:104F60001320FCF758F80A20FBF71AFA4021112009
:104F7000FCF751F850211520FCF74DF80A20FBF7FB
:104F80000FFA1E211220FCF746F80A20FBF708FA58
:104F90004FF4B1511020FCF73EF842F639211320AE
:104FA000FCF739F80A20FBF7FBF94FF48071012078
:104FB000FCF731F84FF440710220FCF72CF841F275
:104FC00038010320FCF727F840F202210820FCF703
:104FD00022F808210A20FCF71EF800213020FCF7F7
:104FE0001AF840F202413120FCF715F84FF48371B2
:104FF0003220FCF710F840F203513320FCF70BF895
:105000004FF482713420FCF706F840F2013135206C
:10501000FCF701F840F207713620FBF7FCFF40F285
:1050200005313720FBF7F7FF4FF402713820FBF70B
:10503000F2FF40F60B7100E03CE03920FBF7EBFF9C
:1050400002214120FBF7E7FF4FF41C516020FBF7E2
:10505000E2FF01216120FBF7DEFF4FF40471902095
:10506000FBF7D9FF4FF485719220FBF7D4FF0421A1
:105070009320FBF7D0FF4FF48071A020FBF7CBFF0C
:1050800001210720FBF7C7FF21210720FBF7C3FF02
:1050900023210720FBF7BFFF33210720FBF7BBFFCE
:1050A00040F233110720FBF7B6FF0021A020FBF7E9
:1050B000B2FFB4E09648808844F235518842F8D176
:1050C00030211520FBF7A7FF10219A20FBF7A3FF43
:1050D00020211120FBF79FFF43F228411020FBF70E
:1050E0009AFF02211220FBF796FF41F238011320AC
:1050F000FBF791FF2820FBF753F912210846FBF735
:105100008AFF2820FBF74CF943F220411020FBF7DF
:1051100082FF43F238011320FBF77DFF4620FBF7A7
:105120003FF900213020FBF776FF40F202413120A9
:10513000FBF771FF40F207313220FBF76CFF4FF4B1
:1051400041713320FBF767FF04213420FBF763FF35
:1051500040F201413520FBF75EFF40F20771362037
:10516000FBF759FF40F205313720FBF754FF4FF4AE
:10517000C2613820FBF74FFF4FF4C2613920FBF7C3
:105180004AFF4FF480710120FBF745FF4FF4407157
:105190000220FBF740FF41F230010320FBF73BFF09
:1051A00040F608010820FBF736FF08210A20FBF72C
:1051B00032FF4FF41C516020FBF72DFF01216120CD
:1051C000FBF729FF4FF49F719020FBF724FF4FF46A
:1051D00080719220FBF71FFF4FF480719320FBF743
:1051E0001AFF4FF44051A020FBF715FF1021A32018
:1051F000FBF711FF01210720FBF70DFF21210720FD
:10520000FBF709FF23210720FBF705FF33210720C8
:10521000FBF701FF40F233110720FBF7FCFE0020F3
:10522000FCF7A0FA01203B4908604FF6FF70FCF73D
:1052300014FC10BD2DE9FC4F05460E461746984656
:10524000DDF82C90002001903148808846F604015A
:10525000884229D12E488079012825D1AB46354690
:105260002B480088C01B401E86B24746284800884D
:10527000A0EB0B00401E1FFA80F800202449887123
:105280002A2048812B20888143463A4631462846C9
:10529000CDF80090FFF7CEFF01201D4988712B202B
:1052A00048812A2088811CE0781B401C80B2019034
:1052B000344614E021462846FBF7DFFEFBF7C0FE2C
:1052C0004FF0000A06E04846FBF793FE0AF10100A2
:1052D0001FFA80FA01988245F5DB601C84B24445D0
:1052E000E8DDBDE8FC8F2DE9F84F07460D469046F6
:1052F0009946DDF828B0A8EB0700401C80B200906A
:10530000A9EB0500401C1FFA80FA00241AE00000F7
:10531000F402002080812142281981B23846FBF72F
:10532000ACFEFBF78DFE002607E004FB0A603BF8AD
:105330001000FE490880701C86B200988642F4DB9B
:10534000601C84B25445E7DBBDE8F88F2DE9FF4FC0
:1053500084B081468A460020039002900698A0EB14
:1053600009050798A0EB0A06CDF80490CDF800A037
:10537000002D01DD012705E00DB9002702E04FF007
:10538000FF376D42002E02DD4FF0010806E016B92E
:105390004FF0000802E04FF0FF387642B54201DDE1
:1053A0002C4600E034464FF0000B21E0009A91B209
:1053B000019A90B2FCF73DF90398284403900298B3
:1053C000304402900398A04205DD0398001B03902F
:1053D0000198384401900298A04205DD0298001B14
:1053E00002900098404400900BF101001FFA80FBEE
:1053F000601C8345DADD08B0BDE8F08FF0B50446E7
:105400000D4616461F462B46324629462046FFF7D4
:105410009DFF3B46224629462046FFF797FF3B4625
:10542000324639462046FFF791FF3B463246294631
:105430003046FFF78BFFF0BD2DE9F04306460F46DF
:105440009046002445460320A0EB48093CE07A1B27
:1054500091B2321990B2FCF7ECF83A1B91B2721982
:1054600090B2FCF7E6F83A1991B2721990B2FCF7D3
:10547000E0F87A1991B2321990B2FCF7DAF87A1999
:1054800091B2321B90B2FCF7D4F83A1991B2721B68
:1054900090B2FCF7CEF87A1B91B2321B90B2FCF7B7
:1054A000C8F83A1B91B2721B90B2FCF7C2F8641CA8
:1054B000B9F1000F03DAA000801D814404E0601BF5
:1054C00080000A3081446D1EAC42C0DDBDE8F0832F
:1054D0002DE9F84F05460F4690461E460097944822
:1054E000B0F80090A8F1200000F0FF080A9800280A
:1054F0004ED1002449E00C2E07D108EB48008D491D
:1055000001EB800010F804A004E08B4800EB0810C9
:1055100010F804A04FF0000B31E00AF0800018B141
:105520008348A0F8009003E0844800888049088000
:1055300039462846FCF77DF84FEA4A604FEA106A80
:10554000781C87B27E480088A84204DC7848A0F81E
:105550000090BDE8F88F0098381AB0420BD1009F38
:10556000681C85B276480088A84203DC7048A0F821
:105570000090EEE706E00BF1010000F0FF0BBBF13D
:10558000080FCADB00BF601CC4B2B442B3DB44E006
:10559000002440E00C2E07D108EB4800654901EBE0
:1055A000800010F804A004E0634800EB081010F835
:1055B00004A04FF0000B28E00AF0800018B1394633
:1055C0002846FCF736F84FEA4A604FEA106A781C22
:1055D00087B25B484088A84203DC5548A0F8009099
:1055E000B7E70098381AB0420BD1009F681C85B20B
:1055F00053480088A84203DC4D48A0F80090A8E773
:1056000006E00BF1010000F0FF0BBBF1080FD3DB4C
:1056100000BF601CC4B2B442BCDB4548A0F8009097
:1056200000BF96E710B50246012000E050430B0092
:10563000A1F10104E1B2F9D110BD2DE9FF4F81B014
:10564000074691461E460E9D4FF0000A002439E0A1
:10565000301B401EC1B20A20FFF7E4FFB9FBF0F097
:105660000A21B0FBF1F201FB1208BAF1000F16D1CA
:10567000701EA04213DDB8F1000F0ED10020AB4622
:1056800005EBDB71491001FB0471009088B22B46D9
:1056900020220299FFF71CFF12E04FF0010A0020C0
:1056A000AB4605EBDB71491001FB0471009088B239
:1056B00008F13001CAB22B460299FFF709FF00BF7B
:1056C000601CC4B2B442C3DB05B0BDE8F08F2DE965
:1056D000FF4F82B0064692461F46DDE90F48002084
:1056E000019000255BE0781B401EC1B20A20FFF745
:1056F00099FFBAFBF0F00A21B0FBF1F201FB1209AD
:105700000198A8BB781EA84235DDB9F1000F30D151
:1057100008F08000E0B108F00100A34604EBDB7163
:10572000491001FB0561009088B20BE00008006C95
:10573000140000208A8B0008FE8F0008160000204D
:10574000F4020020234630220399FFF7C1FE0EE049
:1057500008F00100A34604EBDB71491001FB056171
:10576000009088B2234620220399FFF7B1FE14E08F
:1057700001E00120019008F00100A34604EBDB7179
:10578000491001FB0561009088B209F13001CAB2ED
:1057900023460399FFF79CFE00BF681CC5B2BD42BB
:1057A000A1DB06B0BDE8F08F2DE9F84704460D46B1
:1057B00090469946DDE9096704F0FF0A08EB04000A
:1057C0001FFA80F809EB05001FFA80F916E044453E
:1057D00002DB5446A81985B24D4500DB14E00020D9
:1057E00000903A78334629462046FFF771FE30464E
:1057F00006EBD07104EB61018CB27F1C38787E28F7
:1058000002DC38782028E2DA00BFBDE8F887000023
:10581000F0B503460C461546642093FBF0F0C6B283
:10582000642093FBF0F700FB1730C1B2132E02DDAA
:1058300001F16400C1B20846CF1701EB977701EB85
:10584000A707BAB2072092FBF0F700FB172082B23D
:105850005719601EDFF828C41CF80000384482B2D3
:10586000CF1701EB9777BF10A1EB87071FB9032C68
:1058700001DA501E82B2072092FBF0F700FB1720DE
:10588000C0B2F0BD0146CA1701EB92729210A1EBB3
:10589000820292B9642091FBF0F200FB121050B921
:1058A0004FF4C87091FBF0F200FB121008B9012010
:1058B00070470020FCE70120FAE70020F8E770B508
:1058C000002600240025EF4806883604001D0088C5
:1058D0000644ED48B6FBF0F4EC480088A0423AD00C
:1058E000EA490C8040F2B2750EE02846FFF7CAFF85
:1058F00030B1B4F5B77F02D3A4F5B77402E006E087
:10590000A4F26D14681C85B2B4F5B67FEDD800BF63
:10591000DF488580002516E0DD498888FFF7B2FF63
:1059200030B1012D04D11D2C01D31D3C09E00CE048
:10593000D848405DA04203D8D648405D241A00E014
:1059400003E0681C85B21C2CE6D200BF681CD0495D
:105950008871601CC871CC48B6FBF0F100FB116483
:105960004FF46160B4FBF0F0C94908704FF4616016
:10597000B4FBF0F100FB11403C21B0FBF1F0C44955
:1059800048704FF46160B4FBF0F100FB11403C2122
:10599000B0FBF1F201FB1200BD4988700B46DA79C9
:1059A00099799888FFF734FFB9490872002070BDD3
:1059B0002DE9F04F06460F4690469946DDE909ABC2
:1059C000002440F2B270864203DB40F63300864288
:1059D00002DD0120BDE8F08F40F2B2750AE02846F2
:1059E000FFF750FF10B1AC48044401E0AB48044459
:1059F000681C85B2B542F2DB781EC7B2002510E004
:105A0000A448405D40F2A321484304EBC014304653
:105A1000FFF738FF18B1012D01D19B480444681CE1
:105A200085B2BD42ECDBA8F1010040F2A32148435E
:105A300004EBC014C9EB4910C0EB092004EB0014BF
:105A4000CAEB0A1004EB80045C449548C06940F03E
:105A500080509349C8610846C06940F00060C86141
:105A60009048006840F480708E490860854814387A
:105A7000008840F010008349143908808149091DCD
:105A80000C80200C091F08807E481438008820F004
:105A900010007C491439088000BF7A481438008807
:105AA00000F020000028F8D0FFF709FF002091E760
:105AB0001CB500247C48008845F2500188427DD006
:105AC0007748C06940F080507549C8610846C06990
:105AD00040F00060C8617348006840F4807071490C
